:020000040800F2
:1000000000800120A5280008F5280008F528000830
:10001000F5280008F5280008F52800080000000071
:10002000000000000000000000000000F5280008AB
:10003000F528000800000000F52800080D28000839
:10004000F5280008F5280008F5280008F52800081C
:10005000F5280008F5280008F5280008F52800080C
:10006000F5280008F5280008F5280008F5280008FC
:10007000F5280008F5280008F5280008F5280008EC
:10008000F5280008F52800081D28000800000000D9
:10009000000000000000000000000000F52800083B
:1000A000F52800082928000841280008F52800083C
:1000B000F5280008F5280008F5280008F5280008AC
:1000C000F5280008F5280008F5280008F52800089C
:1000D000F5280008F5280008F528000800000000B1
:1000E000F5280008F5280008F528000800000000A1
:1000F000000000000000000000000000F5280008DB
:1001000000000000F5280008F5280008F528000880
:1001100000000000000000000000000000000000DF
:10012000F5280008F5280008F5280008F52800083B
:10013000F52800080000000000000000000000009A
:10014000000000000000000000000000F52800088A
:10015000F5280008F5280008F5280008F52800080B
:10016000F5280008F5280008000000000000000045
:10017000000000000000000000000000000000007F
:1001800000000000F528000800000000000000004A
:04019000F528000846
:1001980010B5054C237833B9044B13B10448AFF3B9
:1001A80000800123237010BD14000020000000000F
:1001B800F429000808B5034B1BB103490348AFF302
:1001C800008008BD0000000018000020F429000885
:1001D80081F0004102E000BF83F0004330B54FEAF0
:1001E80041044FEA430594EA050F08BF90EA020F5D
:1001F8001FBF54EA000C55EA020C7FEA645C7FEAF0
:10020800655C00F0E2804FEA5454D4EB5555B8BF12
:100218006D420CDD2C4480EA020281EA030382EA83
:10022800000083EA010180EA020281EA0303362D15
:1002380088BF30BD11F0004F4FEA01314FF4801CE8
:100248004CEA113102D0404261EB410113F0004FFA
:100258004FEA03334CEA133302D0524263EB4303B1
:1002680094EA050F00F0A780A4F10104D5F1200E4F
:100278000DDB02FA0EFC22FA05F2801841F10001AA
:1002880003FA0EF2801843FA05F359410EE0A5F17E
:1002980020050EF1200E012A03FA0EFC28BF4CF0AF
:1002A800020C43FA05F3C01851EBE37101F0004565
:1002B80007D54FF0000EDCF1000C7EEB00006EEB72
:1002C8000101B1F5801F1BD3B1F5001F0CD34908FC
:1002D8005FEA30004FEA3C0C04F101044FEA445253
:1002E80012F5800F80F09A80BCF1004F08BF5FEADA
:1002F800500C50F1000041EB045141EA050130BDBA
:100308005FEA4C0C404141EB010111F4801FA4F15C
:100318000104E9D191F0000F04BF01460020B1FAB1
:1003280081F308BF2033A3F10B03B3F120020CDAE9
:100338000C3208DD02F1140CC2F10C0201FA0CF0C7
:1003480021FA02F10CE002F11402D8BFC2F1200C2C
:1003580001FA02F120FA0CFCDCBF41EA0C019040E2
:10036800E41AA2BF01EB0451294330BD6FEA04042B
:100378001F3C1CDA0C340EDC04F11404C4F1200216
:1003880020FA04F001FA02F340EA030021FA04F328
:1003980045EA030130BDC4F10C04C4F1200220FA7F
:1003A80002F001FA04F340EA0300294630BD21FABD
:1003B80004F0294630BD94F0000F83F4801306BF83
:1003C80081F480110134013D4EE77FEA645C18BF77
:1003D8007FEA655C29D094EA050F08BF90EA020F0E
:1003E80005D054EA000C04BF1946104630BD91EA06
:1003F800030F1EBF0021002030BD5FEA545C05D109
:100408004000494128BF41F0004130BD14F5800447
:100418003CBF01F5801130BD01F0004545F0FE41BB
:1004280041F470014FF0000030BD7FEA645C1ABFF0
:10043800194610467FEA655C1CBF0B46024650EA27
:10044800013406BF52EA033591EA030F41F4002153
:1004580030BD00BF90F0000F04BF0021704730B5D9
:100468004FF4806404F132044FF000054FF00001AE
:1004780050E700BF90F0000F04BF0021704730B56F
:100488004FF4806404F1320410F0004548BF404244
:100498004FF000013EE700BF42004FEAE2014FEA99
:1004A80031014FEA02701FBF12F07F4393F07F4F74
:1004B80081F06051704792F0000F14BF93F07F4FA6
:1004C800704730B54FF4607401F0004521F00041E9
:1004D80020E700BF50EA010208BF704730B54FF06F
:1004E80000050AE050EA010208BF704730B511F074
:1004F800004502D5404261EB41014FF4806404F1AC
:1005080032045FEA915C3FF4DCAE4FF003025FEA2D
:10051800DC0C18BF03325FEADC0C18BF033202EBB5
:10052800DC02C2F1200300FA03FC20FA02F001FA0F
:1005380003FE40EA0E0021FA02F11444C1E600BFAE
:1005480070B54FF0FF0C4CF4E06C1CEA11541DBF61
:100558001CEA135594EA0C0F95EA0C0F00F0DEF82C
:100568002C4481EA030621EA4C5123EA4C5350EA11
:10057800013518BF52EA033541F4801143F4801362
:1005880038D0A0FB02CE4FF00005E1FB02E506F0F3
:100598000042E0FB03E54FF00006E1FB03569CF048
:1005A800000F18BF4EF0010EA4F1FF04B6F5007F4E
:1005B80064F5407404D25FEA4E0E6D4146EB0606C0
:1005C80042EAC62141EA55514FEAC52040EA5E5049
:1005D8004FEACE2EB4F1FD0C88BFBCF5E06F1ED8F3
:1005E800BEF1004F08BF5FEA500E50F1000041EB2A
:1005F800045170BD06F0004646EA010140EA0200D7
:1006080081EA0301B4EB5C04C2BFD4EB0C0541EAF8
:10061800045170BD41F480114FF0000E013C00F30D
:10062800AB8014F1360FDEBF002001F0004170BD31
:10063800C4F10004203C35DA0C341BDC04F114044A
:10064800C4F1200500FA05F320FA04F001FA05F2D6
:1006580040EA020001F0004221F0004110EBD370A3
:1006680021FA04F642EB06015EEA430E08BF20EACF
:10067800D37070BDC4F10C04C4F1200500FA04F372
:1006880020FA05F001FA04F240EA020001F0004104
:1006980010EBD37041F100015EEA430E08BF20EA77
:1006A800D37070BDC4F1200500FA05F24EEA020EBF
:1006B80020FA04F301FA05F243EA020321FA04F0EE
:1006C80001F0004121FA04F220EA020000EBD370A5
:1006D8005EEA430E08BF20EAD37070BD94F0000FA5
:1006E8000FD101F00046400041EB010111F4801FD9
:1006F80008BF013CF7D041EA060195F0000F18BF8A
:10070800704703F00046520043EB030313F4801FC5
:1007180008BF013DF7D043EA0603704794EA0C0F7F
:100728000CEA135518BF95EA0C0F0CD050EA410695
:1007380018BF52EA4306D1D181EA030101F0004112
:100748004FF0000070BD50EA410606BF104619463A
:1007580052EA430619D094EA0C0F02D150EA013646
:1007680013D195EA0C0F05D152EA03361CBF104687
:1007780019460AD181EA030101F0004141F0FE4126
:1007880041F470014FF0000070BD41F0FE4141F4AA
:10079800780170BD70B54FF0FF0C4CF4E06C1CEAAA
:1007A80011541DBF1CEA135594EA0C0F95EA0C0F5F
:1007B80000F0A7F8A4EB050481EA030E52EA03351A
:1007C8004FEA013100F088804FEA03334FF080553B
:1007D80045EA131343EA12634FEA022245EA111568
:1007E80045EA10654FEA00260EF000419D4208BF19
:1007F800964244F1FD0404F5407402D25B084FEAC6
:100808003202B61A65EB03055B084FEA32024FF471
:1008180080104FF4002CB6EB020E75EB030E22BFCE
:10082800B61A754640EA0C005B084FEA3202B6EB8E
:10083800020E75EB030E22BFB61A754640EA5C003D
:100848005B084FEA3202B6EB020E75EB030E22BFCD
:10085800B61A754640EA9C005B084FEA3202B6EBCE
:10086800020E75EB030E22BFB61A754640EADC008D
:1008780055EA060E18D04FEA051545EA16754FEAEF
:1008880006164FEAC30343EA52734FEAC2025FEA0D
:100898001C1CC0D111F4801F0BD141EA00014FF09C
:1008A80000004FF0004CB6E711F4801F04BF01436D
:1008B8000020B4F1FD0C88BFBCF5E06F3FF6AFAE89
:1008C800B5EB030C04BFB6EB020C5FEA500C50F119
:1008D800000041EB045170BD0EF0004E4EEA11319C
:1008E80014EB5C04C2BFD4EB0C0541EA045170BDA3
:1008F80041F480114FF0000E013C90E645EA060EE7
:100908008DE60CEA135594EA0C0F08BF95EA0C0F14
:100918003FF43BAF94EA0C0F0AD150EA01347FF45C
:1009280034AF95EA0C0F7FF425AF104619462CE733
:1009380095EA0C0F06D152EA03353FF4FDAE104696
:10094800194622E750EA410618BF52EA43067FF4E7
:10095800C5AE50EA41047FF40DAF52EA43057FF477
:10096800EBAE12E74A0011D212F5001211D20DD5E2
:100978006FF47873B3EB62520ED44FEAC12343F09D
:10098800004343EA505323FA02F070474FF0000047
:10099800704750EA013002D14FF0FF3070474FF0F6
:1009A8000000704753B94AB9002908BF00281CBF86
:1009B8004FF0FF314FF0FF3000F07AB9ADF1080C7D
:1009C8006DE904CE00F006F8DDF804E0DDE9022365
:1009D80004B070472DE9F0478C460D460446089E42
:1009E800002B51D18A4217466DD9B2FA82FEBEF168
:1009F800000F0BD0CEF1200C01FA0EF520FA0CFCFA
:100A080002FA0EF74CEA050C00FA0EF44FEA174A00
:100A1800250CBCFBFAF81FFA87F90AFB18CC45EA43
:100A28000C4508FB09F3AB420AD9ED1908F1FF326E
:100A380080F02381AB4240F22081A8F102083D44B6
:100A4800ED1AA4B2B5FBFAF00AFB105544EA0544C6
:100A580000FB09F9A14509D9E41900F1FF3380F039
:100A68000A81A14540F2078102383C44A4EB0904FD
:100A780040EA08400021002E61D024FA0EF4002339
:100A880034607360BDE8F0878B4207D9002E54D0DC
:100A9800002186E821000846BDE8F087B3FA83F113
:100AA800002940F08E80AB4202D3824200F2FA80E5
:100AB800841A65EB03050120AC46002E3FD086E87A
:100AC8001010BDE8F08712B90127B7FBF2F7B7FAA3
:100AD80087FEBEF1000F34D1EB1B3A0C1FFA87FCDE
:100AE8000121B3FBF2F8250C02FB183345EA034554
:100AF8000CFB08F3AB4207D9ED1908F1FF3002D21D
:100B0800AB4200F2D1808046ED1AA3B2B5FBF2F0F9
:100B180002FB105543EA05440CFB00FCA44507D929
:100B2800E41900F1FF3302D2A44500F2B880184658
:100B3800A4EB0C0440EA08409DE731463046BDE886
:100B4800F087CEF1200405FA0EF307FA0EF720FA23
:100B580004F83A0C25FA04F448EA0308B4FBF2F165
:100B68004FEA184502FB11441FFA87FC45EA044581
:100B780001FB0CF3AB4200FA0EF409D9ED1901F1AF
:100B8800FF3080F08A80AB4240F2878002393D44D2
:100B9800EB1A1FFA88F5B3FBF2F002FB103345EAB3
:100BA800034500FB0CF3AB4207D9ED1900F1FF3800
:100BB8006FD2AB426DD902383D44EB1A40EA01418D
:100BC8008FE7C1F1200722FA07F88B4005FA01F4F4
:100BD80048EA030320FA07FE4FEA134CFD404EEAA9
:100BE800040EB5FBFCF94FEA1E440CFB19551FFA1D
:100BF80083F844EA054509FB08F4AC4202FA01F21D
:100C080000FA01FA08D9ED1809F1FF3043D2AC42D5
:100C180041D9A9F102091D442D1B1FFA8EFEB5FB0F
:100C2800FCF00CFB10554EEA054400FB08F8A04503
:100C380007D9E41800F1FF3529D2A04527D9023891
:100C48001C4440EA0940A4EB0804A0FB02894C4577
:100C5800C6464D4615D312D056B1BAEB0E0364EB17
:100C6800050404FA07F7CB401F43CC403760746093
:100C78000021BDE8F0871846F8E69046E0E6C24550
:100C8800EAD2B8EB020E69EB03050138E4E728461F
:100C9800D7E7404691E78146BEE7014678E7023844
:100CA8003C4445E7084608E7A8F102083D442BE71D
:100CB800704700BF38B50E4A0E4B054618784FF4FA
:100CC8007A73B3FBF0F31068B0FBF3F000F0E4FACA
:100CD800044658B90F2D09D8024629464FF0FF306F
:100CE80000F09AFA044B20461D6038BD012038BD3B
:100CF80010000020000000200400002008B50B4B65
:100D08001A6842F400721A601A6842F480621A6023
:100D18001A6842F480721A60032000F06BFA00200F
:100D2800FFF7C8FF01F0B8FC002008BD003C0240F6
:100D3800034A044B11681B780B441360704700BFCB
:100D48005800002000000020014B1868704700BFC1
:100D58005800002038B50446FFF7F6FF631C1CBF97
:100D6800054B1B78054618BFE418FFF7EDFF401B3D
:100D78008442FAD838BD00BF0000002010B50446F0
:100D8800002800F09980036C23B9436480F83C3054
:100D980001F0B2FC236CDB0600F18C80236C23F499
:100DA800885323F0020343F002032364434B5A6839
:100DB80022F440325A605A6861680A435A602368CC
:100DC80021695A6822F480725A605A6842EA0122FC
:100DD8005A605A68A16822F040725A605A680A43F9
:100DE8005A609A68E16822F400629A609A680A4335
:100DF8009A603349A26A8A4250D0996821F070619A
:100E0800996099680A439A609A68E16A22F04052A8
:100E18009A609A680A439A609A68A16922F0020265
:100E28009A609A6842EA41029A60226A002A3DD092
:100E38005A68616A42F400625A605A6822F4604251
:100E48005A605A68013942EA41325A60DA6AE169FD
:100E580022F47002DA62DA6A013942EA0152DA628D
:100E68009A68216B22F400729A609A6842EA4122D9
:100E78009A609A68616922F480629A609A68002090
:100E880042EA81229A606064236C23F0030343F0F2
:100E980001032364002384F83C3010BD9A6822F0D3
:100EA80070629A609A6822F04052B4E75A6822F455
:100EB8000062CAE70120EDE7012010BD00230140D0
:100EC8000100000F82B00023019390F83C30012B01
:100ED80054D0012380F83C3003689A68D10705D5BF
:100EE8009A68D20714D4002002B070479A6824493F
:100EF80042F001029A60234A1268B2FBF1F202EB57
:100F080042020192019A002AEAD0019A013AF8E7CE
:100F1800026C22F4E06222F0010242F48072026460
:100F28005A68510541BF026C22F4405242F4805283
:100F38000264026C12F480521CBF426C22F006025A
:100F48004264002280F83C206FF022021A605A683E
:100F580042F0806242F020025A600B4A5268D20680
:100F680008D1986810F04050BDD19A6842F080428C
:100F78009A60B9E7054A9342B5D1F2E70220B3E790
:100F880040420F00100000200023014000200140D3
:100F98000368D86C70477047704738B5036819689C
:100FA8005A688D0704462BD5900629D5226CD106A0
:100FB8005EBF226C42F4007222649A6812F0405FAD
:100FC80017D1A269AAB9DA6A12F4700F02D09A6826
:100FD80052050ED45A6822F020025A60236C23F47A
:100FE80080732364236CDB045EBF236C43F001032E
:100FF8002364204601F086F823686FF012021A6015
:10100800236819685A684D0732D5100630D5226C06
:10101800D1065EBF226C42F4005222649A6812F430
:10102800401F1ED19A6B12F4401F02D09A685205D5
:1010380017D45A68550514D49A6812F0405F10D135
:10104800A26972B95A6822F080025A60236C23F4AC
:1010580080532364236CD8055EBF236C43F00103DF
:101068002364204600F0C4F823686FF00C021A606D
:10107800236819685A68C9070FD555060DD51B6826
:10108800D8070AD5236C43F4803323642046FFF73E
:1010980082FF23686FF001021A60236819685A6892
:1010A80089060DD552010BD5626C6FF0200542F010
:1010B8000202626420461D60FFF76EFF23681D6010
:1010C80038BD0000F7B50023019390F83C30012BA0
:1010D80000F083800D6804688A680123092D80F870
:1010E8003C30AEB22AD906EB4603E7681E3B4FF008
:1010F800070E0EFA03FE27EA0E07E760E76802FA12
:1011080003F33B43E3604A68062A4FEA820325D883
:101118001344676B591F1F238B4027EA030363633C
:10112800626B06FA01F1114361632D4B9C4234D086
:10113800002380F83C30184603B0F0BD276905EB62
:1011480045034FF0070E0EFA03FE27EA0E07276144
:10115800276902FA03F33B432361D4E70C2A0ED82C
:101168001344216BA3F123021F23934021EA0303B5
:101178002363236B06FA02F21A432263D5E713446A
:10118800E16A413B1F229A4021EA0202E262E26AD6
:1011980006FA03F11143E162C7E7122D04D1114A9F
:1011A800536843F480035360A5F11003012BBFD8A3
:1011B8000C4A5368102D43F400035360B8D10A4B0E
:1011C8000A4A1B68B3FBF2F20A2353430193019BBB
:1011D800002BADD0019B013BF8E70220ACE700BF34
:1011E80000200140002301401000002040420F0071
:1011F80070470000074AD36823F4E0631B041B0C04
:1012080043F0BF63000243F4003300F4E06003439B
:10121800D360704700ED00E0174B30B5DC68C4F3CD
:101228000224C4F10703251D042B28BF0423062D1F
:101238004FF0010505FA03F303F1FF338CBF033CBC
:1012480000241940A14005FA04F4013C224000287A
:1012580042EA01024FEA0212AFBF00F1604000F01B
:101268000F00064BD2B2A5BF00F56140D2B21A54A6
:1012780080F8002330BD00BF00ED00E014ED00E071
:101288004209012300F01F0003FA00F0014B43F864
:101298002200704700E100E00138B0F1807F0AD2F7
:1012A800064B074A5860F02182F8231000200722D5
:1012B80098601A6070470120704700BF10E000E096
:1012C80000ED00E0044B1A6804280CBF42F0040249
:1012D80022F004021A60704710E000E0704708B579
:1012E800FFF7FCFF08BD00002DE9F04F85B00B6843
:1012F800DFF89C81644A01934FF001090023019CA7
:1013080009FA03F707EA0406B74240F0AD804C68D3
:1013180024F0100ABAF1020F16D14FEAD30C00EBF1
:101328008C0C03F0070BDCF820504FEA8B0B4FF0C6
:101338000F0E0EFA0BFE25EA0E0E0D6905FA0BF5D7
:1013480045EA0E05CCF820504FEA430C0325D0F8A7
:1013580000B005FA0CF5ED4304F0030E0BEA050B9B
:101368000EFA0CFE0AF1FF3A4EEA0B0EBAF1010F23
:101378000095C0F800E015D8D0F808E005EA0E0E90
:10138800CD6805FA0CFA4AEA0E0EC0F808E0D0F863
:1013980004E02EEA0707C4F3001E0EFA03FE4EEA25
:1013A80007074760C768009D3D408F6807FA0CF73C
:1013B8003D43C560E50057D54FF0000BCDF80CB0A4
:1013C800D8F84470314D47F48047C8F84470D8F8CD
:1013D800447007F480470397039F23F0030707F13E
:1013E800804707F59C3703F0030CD7F808A04FEAAD
:1013F8008C0C4FF00F0E0EFA0CFEA8422AEA0E0EC5
:1014080039D005F58065A84237D005F58065A84232
:1014180035D005F58065A84233D005F58065A8422A
:1014280014BF0725042505FA0CF545EA0E05BD602D
:101438001568F74314F4803F0CBF3D4035431560F1
:10144800556814F4003F0CBF3D403543556095681E
:1014580014F4801F0CBF3D4035439560D568A40245
:1014680054BF3D403543D5600133102B7FF447AF5F
:1014780005B0BDE8F08F5D46D5E70125D3E7022525
:10148800D1E70325CFE700BF003C01400000024040
:10149800003802400369194214BF01200020704738
:1014A8000AB1816170470904FBE700002DE9F341A7
:1014B800044618B9012002B0BDE8F0810368DD07D1
:1014C80010D42368980758D423681A0700F19A8023
:1014D80023685B0700F1B880A269002A40F01981EF
:1014E8000020E8E7A64B9A6802F00C02042A07D00D
:1014F8009A6802F00C02082A0AD15B68590207D5DB
:101508009F4B1B689A03DCD56368002BD9D1D1E7C0
:1015180063689B4DB3F5803F11D12B6843F480334A
:101528002B60FFF711FC964D06462B689B03C8D429
:10153800FFF70AFC801B6428F7D90320BBE7B3F543
:10154800A02F04D12B6843F480232B60E5E72A6899
:1015580022F480322A602A6822F480222A60002B32
:10156800DFD1FFF7F1FB06462B689F03A9D5FFF7EC
:10157800EBFB801B6428F7D9DFE7814B9A6812F0F0
:101588000C0F07D09A6802F00C02082A11D15B6888
:101598005E020ED47A4B1A68950702D5E268012AD2
:1015A80088D11A68216922F0F80242EAC1021A6059
:1015B8008AE7E268734BB2B101221A60FFF7C4FBF5
:1015C8006F4D06462B68980707D52B68226923F0CC
:1015D800F80343EAC2032B6076E7FFF7B5FB801BED
:1015E8000228EFD9A9E71A60FFF7AEFB644D06465B
:1015F8002B6899077FF568AFFFF7A6FB801B0228C9
:10160800F6D99AE76269604B7AB101221A60FFF74E
:101618009BFB5B4D06466B6F9F073FF559AFFFF786
:1016280093FB801B0228F6D987E71A60FFF78CFB2B
:10163800534D06466B6F98077FF54AAFFFF784FB5B
:10164800801B0228F6D978E74D4B1A6C12F08052AD
:1016580028D101921A6C42F080521A641B6C03F074
:1016680080530193019B0126484D2B68D9051BD552
:10167800A368434D012B27D12B6F43F001032B6740
:10168800FFF762FB3E4D074641F288382B6F9B07F8
:1016980039D5002E3FF420AF394A136C23F080531C
:1016A800136419E70026DFE72B6843F480732B6087
:1016B800FFF74AFB07462B68DA05D9D4FFF744FB46
:1016C800C01B0228F7D938E7052B04D12B6F43F04C
:1016D80004032B67D0E72A6F22F001022A672A6FDA
:1016E80022F004022A67002BCAD1FFF72DFB41F232
:1016F800883807462B6F9807CBD5FFF725FBC01B0B
:101708004045F7D919E7FFF71FFBC01B4045BDD976
:1017180013E71B4DAB6803F00C03082B3FF4CAAE6C
:101728001B4E0023022A336034D1FFF70DFB074616
:101738002B6899011ED4226AE3691343626A43EA5B
:101748008213E26A43EA0263A26A0D4C5208013A24
:1017580043EA02436B6001233360FFF7F5FA05465D
:1017680023689A013FF5BCAEFFF7EEFA401B02284A
:10177800F6D9E2E6FFF7E8FAC01B0228D8D9DCE67A
:101788000038024000004742800E47420070004087
:1017980060004742FFF7D8FA04462B689B017FF5A3
:1017A8009FAEFFF7D1FA001B0228F6D9C5E600BFA5
:1017B800134908B58B6803F00C03042B03D0082BDE
:1017C80003D0104808BD104808BD4A684B684968EE
:1017D80013F4800314BF0C480A48C1F3881118BFDA
:1017E800002302F03F02A1FB0001FFF7DBF8044BE6
:1017F8005B68C3F3014301335B00B0FBF3F008BD42
:10180800003802400024F40000127A002DE9F0416B
:101818000D46044610B90120BDE8F081444B1A6812
:1018280002F00F028A4228D321688F072DD4C807F7
:1018380040D43F4B1A6802F00F02954266D32268E3
:1018480051076CD4130707D53A4A2169936823F4E2
:10185800604343EAC1039360FFF7AAFF354B364A5A
:101868009B68C3F30313D35CD840344B1860002043
:10187800FFF720FA0020BDE8F081CAB21A701B6891
:1018880003F00F039942C6D1CEE72A4B11F0040F9B
:101898001EBF9A6842F4E0529A600E0742BF9A68E7
:1018A80042F460429A609A68A06822F0F00202430B
:1018B8009A60BCE762681F4B012A1DD11B6813F4AC
:1018C800003FA8D01B4EB36823F003031343B36053
:1018D800FFF73AFA41F288380746B368626803F0BE
:1018E8000C03B3EB820FA4D0FFF72EFAC01B4045C0
:1018F800F3D90320BDE8F081911E01291B6802D8A5
:1019080013F0007FDDE713F0020FDAE7EAB21A708E
:101918001B6803F00F039D427FF47DAF8FE70549F5
:10192800E0688B6823F4E05303438B608AE700BFC9
:10193800003C024000380240202A00081000002025
:10194800014B1868704700BF10000020044B054A7F
:101958009B68C3F38223D35C034A1068D84070475E
:1019680000380240302A000810000020044B054AC5
:101978009B68C3F34233D35C034A1068D84070476E
:1019880000380240302A0008100000200368DA6896
:1019980042F00102DA601A6842F001021A6000207F
:1019A80070470368DA6822F00102DA60196A41F2C6
:1019B8001112114208D1196A40F24442114202BF81
:1019C8001A6822F001021A600020704770477047B9
:1019D80070477047704703681A69910710B5044645
:1019E8000ED5DA6892070BD56FF002021A619B696F
:1019F80001229B07027677D0FFF7EAFF00232376C0
:101A080023681A69500710D5DA6851070DD56FF0A9
:101A180004021A619B69022213F4407F2276204651
:101A280068D0FFF7D5FF0023237623681A691207C9
:101A38000FD5DA6810070CD56FF008021A61DB6958
:101A480004229907227620465AD0FFF7C1FF0023C7
:101A5800237623681A69D20610D5DA68D0060DD520
:101A68006FF010021A61DB69082213F4407F2276B6
:101A780020464BD0FFF7ACFF0023237623681A6972
:101A8800D10708D5DA68D20705D56FF001021A61C7
:101A98002046FFF79BFF23681A69100608D5DA6805
:101AA800110605D56FF080021A61204600F09DF8F6
:101AB80023681A69520608D5DA68500605D56FF00A
:101AC80040021A612046FFF785FF23681A699106CC
:101AD80022D5DA6892061FD56FF0200220461A61D7
:101AE800BDE8104000F080B8FFF771FF2046FFF70F
:101AF80070FF83E7FFF76BFF2046FFF76AFF92E767
:101B0800FFF765FF2046FFF764FFA0E7FFF75FFFD9
:101B18002046FFF75EFFAFE710BD0000224A0368CA
:101B280090420ED0B0F1804F0BD0A2F57C4290428B
:101B380007D002F58062904203D002F5806290429D
:101B480019D14A6823F070031343174A904204D10D
:101B5800CA6823F44073134318E0B0F1804FF7D0FC
:101B6800124A9042F4D002F580629042F0D002F519
:101B780080629042ECD00E4A9042E9D002F5806231
:101B88009042E5D002F580629042E1D003608B6814
:101B9800C3620B688362044B984204BF0B690363FA
:101BA80001234361704700BF00000140000400406A
:101BB8000040014010B50446A0B190F8393003F058
:101BC800FF021BB980F8382000F0C0FD022384F81A
:101BD80039302068211DFFF7A1FF012384F839302F
:101BE800002010BD012010BD704770472DE9F04757
:101BF8000668C2683369C16923F4405313433361EB
:101C0800044683680069F2680343606922F4164257
:101C1800034322F00C020B431343F3607369A26978
:101C280023F440731343B1F5004F73617A4B7CD1B1
:101C38009E4203D003F580639E4244D1FFF796FE8F
:101C4800192505FB00F360684FF064094000B3FBF9
:101C5800F0F3B3FBF9F34FEA0318FFF787FE636865
:101C680068435B00B0FBF3F7FFF780FE63686843E7
:101C78005B00B0FBF3F3B3FBF9F309FB1373DB0071
:101C88003233B3FBF9F35B0003F4F877FFF76EFE2A
:101C9800626868435200B0FBF2FAFFF767FE6368B8
:101CA80068435B00B0FBF3F3B3FBF9F309FB13A341
:101CB800DB003233B3FBF9F303F0070343443B443F
:101CC800B360BDE8F087FFF741FE192505FB00F377
:101CD80060684FF064094000B3FBF0F3B3FBF9F31D
:101CE8004FEA0318FFF732FE636868435B00B0FBF6
:101CF800F3F7FFF72BFE636868435B00B0FBF3F371
:101D0800B3FBF9F309FB1373DB003233B3FBF9F3CD
:101D18005B0003F4F877FFF719FE62686843520026
:101D2800B0FBF2FAFFF712FEB9E79E4202D03B4B36
:101D38009E4240D1FFF71AFE676819254FF06409E3
:101D480005FB00F3BF00B3FBF7F3B3FBF9F31F0187
:101D5800FFF70CFE636868439B00B0FBF3F8FFF7DE
:101D680005FE636868439B00B0FBF3F3B3FBF9F32C
:101D780009FB13831B013233B3FBF9F303F0F008BB
:101D8800FFF7F4FD626868439200B0FBF2FAFFF7D0
:101D9800EDFD636868439B00B0FBF3F3B3FBF9F315
:101DA80009FB13A31B013233B3FBF9F303F00F0351
:101DB80043EA080383E7FFF7C9FD676819254FF071
:101DC800640905FB00F3BF00B3FBF7F3B3FBF9F3BA
:101DD8001F01FFF7BBFD636868439B00B0FBF3F886
:101DE800FFF7B4FD636868439B00B0FBF3F3B3FBF4
:101DF800F9F309FB13831B013233B3FBF9F303F047
:101E0800F008FFF7A3FD626868439200B0FBF2FA9E
:101E1800FFF79CFDBDE700BF001001400014014022
:101E280010B5044640B390F8393003F0FF021BB9EF
:101E380080F8382000F0C0FC2268242384F8393068
:101E4800D36823F40053D3602046FFF7CFFE2368FE
:101E58001A6922F490421A615A6922F02A025A61D8
:101E6800DA6842F40052DA6000202023E06384F844
:101E7800393084F83A3010BD012010BD10B5044641
:101E8800282000F0D3F8E18960680122FFF708FBF9
:101E9800282000F0CBF86068E1890022FFF700FBFA
:101EA8002820BDE8104000F0C1B838B5038A0D46B7
:101EB8008189044619430022406889B2FFF7F0FA85
:101EC800A3685A6922F0FF025A615A6915435D6195
:101ED8002046BDE83840FFF7D1BF38B504460D4667
:101EE800012281894068FFF7DBFA6068218A0022B5
:101EF800FFF7D6FAA3685A6922F0FF025A615A69B5
:101F080015435D612046BDE83840FFF7B7BF38B5D7
:101F18000446BDF81050BDF818002382059BA28125
:101F2800A36061606082E5811420FEF713FF382109
:101F38002046FFF7BAFF0620FEF70CFF382120469F
:101F4800FFF7B3FF642000F071F838212046FFF74F
:101F5800ACFF282000F06AF838212046FFF7A5FFDB
:101F6800282000F063F806212046FFF79EFF28206E
:101F780000F05CF80E212046FFF797FF282000F0BC
:101F880055F801212046FFF790FF0320FEF7E2FEF7
:101F980020468021BDE83840FFF787BF08B50121FA
:101FA800FFF783FF0220BDE80840FEF7D3BE08B55F
:101FB80041EA821161F07F01C9B2FFF776FF28205C
:101FC800BDE8084000F032B808B5FFF786FF2820C2
:101FD800BDE8084000F02AB8092938B505460C467E
:101FE80004D90A21B4FBF1F1FFF7F6FF0A23B4FB89
:101FF800F3F103FB114130312846C9B2BDE838403E
:10200800FFF7E2BF70B506464D1E002415F8011F04
:1020180001B970BD30460134FFF7D6FF0F2CF5D952
:10202800012200213046FFF7C2FFEEE710B5044653
:102038000748FFF7ABFC074B1968023C1A68521AAD
:10204800A242FBD30248BDE81040FFF7AABC00BF7C
:102058005C0000203000002030B595B00022274BEE
:102068000192196C41F0805119641B6C244903F0EA
:1020780080530193019B02920B6823F4404343F47D
:1020880000430B600B680F9203F440430293029BDA
:1020980001230B9310230C9310934FF4A87302247D
:1020A80011930425072308A808940E9412951393F6
:1020B800FFF7FCF900B1FEE70F23039305904FF4F7
:1020C80080530790214603A804940693FFF79EFBCC
:1020D800044600B1FEE7FFF733FC4FF47A73B0FB18
:1020E800F3F0FFF7D9F82846FFF7ECF82246214627
:1020F8004FF0FF30FFF790F815B030BD00380240C0
:102108000070004003681B689B0710B50AD50E4C89
:10211800237843B90D48FEF73BFF0D4B1860237831
:102128000133237010BD012B04D10848FEF730FF9E
:10213800084BF3E7022BF5D10448FEF729FF064BBD
:1021480018600023EDE700BF44000020480100208C
:10215800540000204000002050000020F8B5104C2A
:10216800104E002510212046FFF794F950B10C4E6F
:102178000C4F002410213046FFF78CF9012808D0B5
:10218800601B04E0681C85B230888542EAD300B23F
:10219800F8BD01343888A4B28442EBD3F7E700BF16
:1021A8000000024008000020F8B56420FEF7D2FDC8
:1021B800002210212748274D274EFFF771F91420D8
:1021C800FEF7C8FD012210212248FFF769F9002413
:1021D80010212846FFF75EF9012833D01F4D00244F
:1021E8002E46FFF7BBFF25F814000134292CF8D13F
:1021F800194B1B4A1F88002006EB001408210023F6
:1022080034F9025FBD4222DA5B00002DDBB201F136
:10221800FF31C8BF43F0010311F0FF01F0D113549F
:1022280001300528E8D15178137890780B44D1789B
:10223800127950FA83F351FA83F3DBB29A4206D14A
:1022480000B2F8BD01343388A4B2A342C0D26FF003
:102258006200F8BD0000024008000020AC00002029
:102268009A0100200000000008B5154B154A18888F
:10227800154B12881B681B1A111A502292FBF1F297
:102288005343124A1E331360114B1868FEF7E2F8E5
:1022980007A3D3E90023FEF753F907A3D3E90023E3
:1022A800FDF79AFFFEF75EFB0A4B186008BD00BFFA
:1022B800F4FE06F44D859D3FA1F3F9AC1B0C50408C
:1022C8002C7AFF1F2E7AFF1F400000203C000020C0
:1022D800500000204800002038B51A4D1A4C2A68D2
:1022E80023689A420BD100224FF480711748FFF7F8
:1022F800D7F800224FF400711448FFF7D1F82A6884
:1023080023689A420BD901224FF480710F48FFF7D6
:10231800C7F800224FF400710C48FFF7C1F82A688B
:1023280023689A420DD200224FF480710748FFF7C4
:10233800B7F801224FF400710448BDE83840FFF7B0
:10234800AFB838BD480000200C000020000402404F
:1023580008B54FF480610C48FFF79CF8012808BFC6
:102368000A4A094808BF13684FF4805104BF03F1B3
:10237800FF331360FFF78EF8012801BF034A136883
:102388000133136008BD00BF000802400C000020A4
:1023980080B58EB00024FEF7B1FCFFF75DFEA44BBC
:1023A80005941A6BA34F42F004021A631A6B02F0E9
:1023B80004020592059A06941A6B42F080021A6389
:1023C8001A6B02F080020692069A07941A6B42F082
:1023D80001021A631A6B02F001020792079A089425
:1023E8001A6B42F002021A631B6B03F00203089394
:1023F8002246FF213846089BFFF752F82246302133
:102408008D48FFF74DF8224640F207318B48FFF719
:1024180047F84FF40053099309A9894B0A933846A2
:1024280001250B944FF0FF08FEF75EFF09A9384617
:10243800CDF824800A950B940C941026FEF754FFCF
:102448004FF0110909A97C480996CDF828900B94FA
:102458000C94FEF749FF202309A9774809930A95A8
:102468000B940C94FEF740FF40F2073309A9734818
:1024780009930A950B940C94FEF736FF4FF4A0537A
:10248800384609A909930A940B95FEF72DFF6D4864
:102498006D4B84604FF4E13E80E808400C23C46033
:1024A800046143618461C461FFF7BAFC00B1FEE7CF
:1024B800664C6749A0604FF4803384E80A002062C4
:1024C800E062644BE0604FF0030A20632046256118
:1024D800A561A362C4F81CA06561FEF74FFC00B1BA
:1024E800FEE7072309A92046CDF824900A950B9307
:1024F800FEF7E8FD00B1FEE74FF0020909A9204602
:102508000996CDF82890FEF7DDFD00B1FEE70990A9
:1025180009A92046CDF828A0FEF7D4FD00B1FEE7B2
:102528004D4E4E4AB0600F2386E80C0030614CF2E5
:102538004F333046F360FFF73DFB00B1FEE7484BF1
:10254800484A1A60586098604F2218611846DA6045
:10255800FFF730FB00B1FEE72046FEF7B3FC30463C
:10256800FFF714FA042300932A46CDF80880019750
:102578004B4632493C483D4E3D4D3B4CFFF7C7FC6E
:10258800FFF712FE3B4B31460A22186000F0ECF9C7
:10259800394B1878394B29460A22186000F0E4F9BB
:1025A800FFF762FEFFF7D4FEFFF796FE2046FFF71F
:1025B800F5FC002211462046FFF7F9FC2046304979
:1025C800FFF720FD31462046FFF71CFD2046DF219E
:1025D800FFF7FAFC20462B49FFF714FD2946204651
:1025E800FFF710FD012220460C21FFF7E0FC264BE7
:1025F80020461968FFF7F0FC012220460021FFF76A
:10260800D6FC20462149FFF7FDFC214B20461968DE
:10261800FFF7E2FC2046DF21FFF7D6FC20461D49E4
:10262800FFF7F0FC4FF47A70FEF794FBA8E700BFC1
:102638000038024000080240000002400004024046
:1026480000002110A00100200044004048010020A3
:10265800002001400100000F00010020004401405B
:102668005C00002000480140980000203C01002048
:1026780090010020380000209A010020340000203A
:102688000C2A0008142A00080C000020182A000848
:10269800480000201E2A000808B50720FEF7AAFDFA
:1026A800002211466FF00B00FEF7B6FD002211461E
:1026B8006FF00A00FEF7B0FD002211466FF0090026
:1026C800FEF7AAFD002211466FF00400FEF7A4FDF4
:1026D800002211466FF00300FEF79EFD002211460E
:1026E8006FF00100FEF798FD002211464FF0FF3011
:1026F800BDE80840FEF790BD10B50268114B9A423C
:1027080086B01DD1002403F58C3300945A6C0E4812
:1027180042F480725A645B6C039403F480730093F0
:10272800009B0123019301A903230293FEF7DCFD1B
:10273800122022462146FEF76FFD1220FEF7A0FD6B
:1027480006B010BD002001400000024007B5036834
:10275800164A934215D10022154B0092596C41F448
:10276800003159645B6C03F400330093192011465F
:10277800009BFEF751FD1920FEF782FD03B05DF8BE
:1027880004FB0C4A9342F9D10022094B0192596C7F
:1027980041F4802159645B6C03F4802301931A206F
:1027A8001146019BFEF738FD1A20E5E70044014079
:1027B80000380240004801407FB502680E4B9A423B
:1027C80017D100230D4A0093116C0D4841F40031D4
:1027D8001164126C039302F400320092009A04937D
:1027E8000C2201920723022201A902920593FEF707
:1027F8007BFD07B05DF804FB004400400038024050
:102808000000024008B5FEF793FABDE80840FEF75D
:1028180066BD00000148FEF7C0BB00BF48010020AC
:10282800034A0448136801331360FFF7D4B800BFA4
:102838004C00002000010020034A044813680133BB
:102848001360FFF7C8B800BF300000205C0000200C
:102858000F49D1F8883043F47003C1F888300D4B24
:102868001A68002042F001021A6098601A6822F083
:10287800847222F480321A60074A5A601A6822F475
:1028880080221A60D8604FF000638B60704700BFE9
:1028980000ED00E00038024010300024DFF834D0AA
:1028A800002103E00C4B5B58435004310B480C4BA0
:1028B80042189A42F6D30B4A02E0002342F8043B3E
:1028C800094B9A42F9D3FFF7C3FF00F011F8FFF75D
:1028D8005FFD704700800120702A0008000000207A
:1028E8001400002014000020E0010020FEE7000092
:1028F80070B50D4E0D4CA41BA4100025A54209D19E
:102908000B4E0C4C00F072F8A41BA4100025A54235
:1029180005D170BD56F8253098470135EEE756F8D1
:10292800253098470135F2E7682A0008682A000828
:10293800682A00086C2A0008931E222B10B50C4642
:1029480004D900230B701C46204610BD0A2A09D161
:10295800002807DA2D230B7040420121214400F0A2
:1029680005F8F1E70021F9E7FFF7E6BFF0B51E4CDF
:102978008BB003460F466D4604F1200E206861684F
:102988002E4603C6083474453546F7D1217931718E
:10299800911E2068306022294FF0000104D9397057
:1029A8000F4638460BB0F0BD781E0646B3FBF2F56D
:1029B8000DF1280E02FB153373444C1C13F8283C08
:1029C80006F8013F2B4665B93D557A18CC1AA34243
:1029D800E7DA4478157800F8015F013302F8014915
:1029E800F4E72146E2E700BF382A0008F8B500BF3F
:1029F800F8BC08BC9E467047F8B500BFF8BC08BCD8
:042A08009E4670472F
:102A0C0044485431313A2000432020004E54433A7C
:102A1C00200043000000000000000000010203043D
:102A2C0006070809000000000102030430313233AC
:102A3C003435363738396162636465666768696A4C
:102A4C006B6C6D6E6F707172737475767778797A52
:042A5C000000000076
:082A60007CDFFF7F0100000094
:042A6800BD010008A4
:042A6C0099010008C4
:102A700001000000100000001027000019000000F5
:042A80000024F4003A
:04000005080028A522
:00000001FF
